:100000000C9441000C9469000C9469000C946900F4
:100010000C9469000C9469000C9469000C946900BC
:100020000C9469000C9469000C9469000C946900AC
:100030000C9469000C9469000C9469000C9469009C
:100040000C94B5090C9469000C9413020C943D02B5
:100050000C9469000C9469000C9469000C9469007C
:100060000C9469000C9469001112131415160A0BF4
:100070000C0D0E0F0001020304056302F103F503EA
:10008000080A11241FBECFEFD8E0DEBFCDBF11E0BC
:10009000A0E0B1E0E6EBFBE202C005900D92A032D9
:1000A000B107D9F724E0A0E2B1E001C01D92AF345E
:1000B000B207E1F710E0C1E4D0E004C02197FE01EF
:1000C0000E947A15CD33D107C9F70E9415040C940C
:1000D000D9150C940000EF92FF920F931F93CF93CA
:1000E000DF93009711F480E019C08A017B01EC01D5
:1000F000BA010E943E088823B1F3E114F10419F417
:100100000115110559F0A801B701CE01DF91CF917A
:100110001F910F91FF90EF900C946208DF91CF91A7
:100120001F910F91FF90EF9008950F931F93CF931E
:10013000DF93CDB7DEB760970FB6F894DEBF0FBE82
:10014000CDBFFB0123812530D1F4248121111AC0B8
:100150008B01FC01BC016C5F7F4F20E130E0AE0100
:100160004F5F5F4F828193810E94E00C40E150E03D
:10017000BE016F5F7F4FC8010E946B0004C081E029
:10018000243009F480E060960FB6F894DEBF0FBE0D
:10019000CDBFDF91CF911F910F91089524E031E001
:1001A000FC013183208312820895CB01009769F00E
:1001B000FB012381211109C02481233031F440E067
:1001C00050E060E070E00C946B0080E00895CF9305
:1001D000DF931416150616061706B4F4EC0188E32F
:1001E00094E00E9490098A8181110FC088E394E015
:1001F0000E941609AB01BC0121E085E292E00E9459
:100200001D0381E08A8301C080E0DF91CF910895D2
:100210000F931F93CF93DF93CDB7DEB72D970FB614
:10022000F894DEBF0FBECDBF8B0188E394E00E943F
:10023000160969837A838B839C8388E394E00E9408
:1002400016098091460490914704A0914804B0910A
:1002500049048D839E83AF83B8870E940C0A698707
:100260007A878B879C873A9B02C098B101C096B170
:1002700092FB992790F99D874DE050E0BE016F5F9A
:100280007F4FC8010E946B002D960FB6F894DEBF19
:100290000FBECDBFDF91CF911F910F910895CF93E6
:1002A000DF939C016115710521F0FB018381882397
:1002B00011F080E040C0FB019481923029F4C90123
:1002C000DF91CF910C940801933098F4911105C0FF
:1002D000CB01DF91CF910C947808913051F7FB015D
:1002E0004581568167817085C901DF91CF910C945A
:1002F000E700943019F43A9881E01DC0943058F426
:1003000099E088E10FB6F894A895809360000FBE3D
:1003100090936000FFCF953061F6EB0185E292E0AB
:100320000E94690340E050E060E070E0CE01DF91A0
:10033000CF910C946B00DF91CF9108952AE031E0CA
:10034000FC0131832083138212820895FC01848191
:10035000DF01A80FB11DAB57BF4F8C91248130E056
:100360002F5F3F4F2F77332724838093C6008091E0
:10037000C00080648093C00093818481981305C07D
:100380008091C1008F7D8093C1000895FC0110828F
:1003900011821282138214820895CF92DF92EF921B
:1003A000FF920F931F93CF93DF93EC016A017B01C0
:1003B00060EA75E286E290E0A70196010E944D1581
:1003C000890101501109011580E1180770F01092A0
:1003D000C00060ED72E183E190E0A70196010E9408
:1003E0004D1589010150110903C082E08093C000BE
:1003F0001093C5000093C40086E08093C20088E19A
:100400008093C100F8948091C10080688093C100FE
:1004100078941882DF91CF911F910F91FF90EF9008
:10042000DF90CF9008951F920F920FB60F92112474
:100430002F933F938F939F93EF93FF932091C60049
:100440008091210190E001968F77992730912201C8
:10045000381741F0E0912101F0E0E05EFE4F258386
:1004600080932101FF91EF919F918F913F912F9167
:100470000F900FBE0F901F9018951F920F920FB6FE
:100480000F9211242F933F934F935F936F937F931A
:100490008F939F93AF93BF93EF93FF9380E291E08D
:1004A0000E94A601FF91EF91BF91AF919F918F9113
:1004B0007F916F915F914F913F912F910F900FBE60
:1004C0000F901F90189580E291E00C94C601FC01FA
:1004D0001182108213821282158214821782168270
:1004E0001086118612861386148615860895CF937A
:1004F000DF93EC016E817F8145E050E009960E9418
:10050000B1158E819F8105969F838E8328813981C5
:100510008217930714F01F821E82DF91CF910895F6
:100520000F931F93CF93DF93EC018CEF93E09983AC
:1005300088831B821A821D821C821F821E8218865B
:100540000E811F81CE010E94770289859A85AB8535
:10055000BC85181619061A061B062CF0892B8A2B47
:100560008B2B49F027C08D85882321F18E819F81B7
:10057000892B31F71FC08D8581111CC08E819F8111
:100580009B838A83CE010E9477021D830C83898519
:100590009A85AB85BC85892B8A2B8B2B29F48D857D
:1005A000811102C01B821A828A819B819F838E8364
:1005B00081E001C080E0DF91CF911F910F910895FC
:1005C000FC018681978105979783868397FF05C0F5
:1005D000808191810597978386836681778145E045
:1005E00050E0CF0109960C94B115CF93DF93EC0145
:1005F00028858E819F81222361F02A813B81821789
:10060000930719F48C819D810BC0CE010E94E002FA
:100610000FC02C813D818217930739F48A819B8119
:100620009F838E8380E090E005C0CE010E94770218
:10063000CE010996DF91CF9108950F931F93CF9329
:10064000DF93EC0149875A876B877C872D878C0164
:10065000075F1F4F6C817D8145E050E0C8010E941B
:10066000C1152C813D812B5F3F4F3D832C838881B9
:1006700099812817390714F01D821C8219861A8661
:100680001B861C861D866C817D8145E050E0C8017B
:100690000E94C1158A819B812C813D81821793071D
:1006A00099F49C012B5F3F4F3B832A8348815981FA
:1006B0002417350714F01B821A822885211102C0E5
:1006C0008A819B819F838E83DF91CF911F910F91B0
:1006D00008950F931F93CF93DF93EC011B821A822F
:1006E0001D821C821F821E8219861A861B861C860A
:1006F0001D868C01075F1F4F6E817F8145E050E0B2
:10070000C8010E94C1152E813F812B5F3F4F3F835F
:100710002E83888199812817390714F01F821E8241
:100720002E813F81232B41F7DF91CF911F910F91B4
:100730000895FC016081718124813581260F371F66
:1007400082819381A901481B590BCA010E94391566
:1007500065E070E00E942515CB010895FC016087DB
:10076000662319F08481958102C0828193819783E9
:10077000868308950F931F93CF93DF9361157105BF
:1007800059F18B01EC010E9499030817190720F514
:100790008885882359F085E0809F9001819F300DE6
:1007A00011248A819B81820F931F0AC085E0809F5C
:1007B0009001819F300D11248C819D81821B930BB0
:1007C0009F838E83688179818E819F81860F971F99
:1007D0000E9439159F838E83DF91CF911F910F91D6
:1007E000089585E292E00C94670260E271E08FE187
:1007F00094E00E9445078CE194E00E94CE0081E1E4
:1008000094E00E943A0A80EC93E00E943A0684EB5E
:1008100093E00E949E0184EA93E00E94BF1164EA83
:1008200073E083E392E00C94400B99E288E10FB609
:10083000F894A895809360000FBE9093600080911B
:100840007A00876880937A00389A3A9A429840E012
:1008500051EE60E070E080E291E00E94CD01C12C99
:10086000D12C760100E010E0980143E060E08FE1D8
:1008700094E00E9463076FE174E08CE194E00E94D1
:10088000D50085E292E00E9490020E94DD0884EA91
:1008900093E00E94C514882369F040E050E06EE3C5
:1008A00083E392E00E94280E83E392E09093B703E3
:1008B0008093B60385E4982EC0E8D0E0A12C98E0A0
:1008C000B92E88248394A8958091B6039091B7039C
:1008D000009781F10E94BD0F8091B6039091B703FC
:1008E0000E94B90C882331F168EB73E08091B60364
:1008F0009091B7030E94C70C8091BE038C34D1F451
:10090000C12CD12C760100E010E0980140E065E0B8
:100910008FE194E00E9463076FE174E084EB93E061
:100920000E949500811106C06FEF7FEF8FE194E088
:100930000E943E0890927C0080917A0080648093AF
:100940007A0080917A0086FDFCCF909178008091AA
:100950007900292F2695269530E4839FC001112424
:10096000922F982B2091C5033091C603B9016F5F78
:100970007F4F7093C6036093C5034091C7035091A6
:10098000C8038091C4036417750709F05AC0A09189
:10099000C903B091CA034091CB035091CC034A17CD
:1009A0005B0720F4FD01E41BF50B03C0FA01EA1B11
:1009B000FB0BF093CF03E093CE03E091CE03F091D5
:1009C000CF03232F33272F5F3F4F220F331F2E17C5
:1009D0003F0788F4A417B50740F48F3F11F08F5FED
:1009E00007C0A417B50748F002C0882331F0815032
:1009F0008093C40302C081E001C080E061157105ED
:100A000021F01092C6031092C5031092CA031092EF
:100A1000C9031092CC031092CB032091C40322236C
:100A200011F0319629F4B092C803A092C70320C0F8
:100A30008823F1F0672BE1F01092C8031092C703EE
:100A400067C0891758F02091C9033091CA032F5FFE
:100A50003F4F3093CA032093C9030AC02091CB03B0
:100A60003091CC032F5F3F4F3093CC032093CB03C7
:100A70002091C7033091C803232B09F049C080910E
:100A8000C303880F8093C3032091C403291718F46C
:100A900081608093C3039091D0038091C303892721
:100AA0008093C30398259093D0039091C203992318
:100AB00079F12091C5033091C60327703327232B8A
:100AC00039F5E091CD03E03448F491E09E0F909326
:100AD000CD03F0E0E054FC4F818B1AC0C12CD12C27
:100AE000760100E010E0980140E063E08FE194E0DF
:100AF0000E9463076FE174E080EC93E00E9490062F
:100B0000811106C06FEF7FEF8FE194E00E943E08F5
:100B100080911304882309F452C088E394E00E9472
:100B200016098091140490911504A0E0B0E0409162
:100B30004604509147046091480470914904841B15
:100B4000950BA60BB70B40911804509119046091B6
:100B50001A0470911B04840F951FA61FB71F4091A4
:100B600016045091170460E070E084179507A607FB
:100B7000B70724F4909317048093160418161906E7
:100B80001A061B06E4F01092130410921704109238
:100B90001604419A3FEF88E09DE331508040904039
:100BA000E1F700C00000419888E394E00E94160934
:100BB000AB01BC0122E085E292E00E941D0311E13D
:100BC000E0911F04F09120048181228190E08058FF
:100BD0009F4F821B9109BE010E943915892B09F490
:100BE00072CE91818281981769F08281DF01A80F0E
:100BF000B11D15966C91828190E001968F779927AF
:100C0000828301C06FEF8FE194E00E947D07811124
:100C100003C01150A9F657CE80912204813039F4D7
:100C20006FE174E081E194E00E94F30A08C0813032
:100C300078F46FE174E08CE194E00E944F0181113F
:100C400042CE6FEF7FEF8FE194E00E943E0839CEF5
:100C5000823039F46FE174E080EC93E00E949006FA
:100C6000EECF843071F76FE174E084EB93E00E9483
:100C70009500E5CFFC0180E191E0918380831282B1
:100C800013828FE784831682158280E098E0908734
:100C90008783128611861486138615861786168614
:100CA000108A719680E4DF011D928A95E9F7089514
:100CB0000F931F93CF93DF9300D000D01F92CDB737
:100CC000DEB7FC018481898381E027813085232B75
:100CD00009F080E08A8382818B83868597859D8356
:100CE0008C836115710511F480E010C08B0165E003
:100CF00070E0C8010E943E088823B1F345E050E04F
:100D0000BE016F5F7F4FC8010E9462080F900F9075
:100D10000F900F900F90DF91CF911F910F91089539
:100D2000EF92FF920F931F93CF93DF93FC01DB01B0
:100D300013968C911397833001F514968C91149728
:100D4000811135C0E584EE2091F18B01EF01672B15
:100D500081F0F12CB701CD010E943E08882349F0B3
:100D6000A701BE016F5E7F4FC8010E94620881111A
:100D700002C01D861CC01D861BC08230B1F4DB0181
:100D800014968C91813079F058F0823081F4CF0143
:100D9000DF91CF911F910F91FF90EF900C94580627
:100DA00081E0828305C01586128281E001C080E067
:100DB000DF91CF911F910F91FF90EF900895FF92D7
:100DC0000F931F93CF93DF93FC01CA01DB01AB01AB
:100DD000480F591F11E0A417B50709F450C00D9131
:100DE00010833381248132130CC02091C00025FF71
:100DF00008C00093C6002091C00020642093C0006A
:100E0000EACF238130E02F5F3F4F2F773327F22E39
:100E10006481F61226C00FB607FCFACF6091C000BD
:100E200065FFF6CF6481EF01C60FD11DCB57DF4FB1
:100E3000C881648170E06F5F7F4F6F77772764832D
:100E4000C093C6006091C00060646093C00073816D
:100E500064817613DDCF6091C1006F7D6093C10026
:100E6000D7CF3381EF01C30FD11DCB57DF4F08839D
:100E700023832091C10020622093C100ACCFDF9179
:100E8000CF911F910F91FF900895FC0171836083B2
:100E9000128286E08383148215821682178210865E
:100EA00011861286138614860895FC01128286E04C
:100EB0008383148215821682178210861186128609
:100EC000138614860895CF92DF92EF92FF920F93CC
:100ED0001F93FC0184E0828363834483058316832C
:100EE00027833087C186D286E386F4861F910F91CF
:100EF000FF90EF90DF90CF900895EF92FF920F93C5
:100F00001F93CF93DF931F92CDB7DEB77C01DC0137
:100F100012968C91843029F4C70169830E94550789
:100F200069816D3009F4A1C06A3361F4F7018281EF
:100F3000813019F482E0828398C0823079F483E0B2
:100F4000D70140C06A3071F0D70112968C91813080
:100F500089F4862F90E0C0970A97B8F1C7010E94E4
:100F6000550783C0F70183818630C1F384E0828313
:100F700081E07CC0813030F08230A1F1833009F40F
:100F800053C073C06F7D633419F4F701138212C02C
:100F9000673511F481E007C0623511F482E008C0C2
:100FA0006E3429F484E0D70113968C9303C086E055
:100FB000F7018383D70113968C911397863009F438
:100FC00054C081E012968C9350C0F70184818A301E
:100FD0002CF6FAE08F9F600D11246053D701149610
:100FE0006C9343C070E0FB01F097EA30F10508F024
:100FF000B5CFD70115962D913D914D915C911897E4
:10100000AAE0B0E00E946F158F01FF0F220B330B97
:10101000DC01CB01800F911FA21FB31FF701858355
:101020009683A783B08721C070E0FB01F097EA3078
:10103000F10508F093CFD70119962D913D914D916F
:101040005C911C97AAE0B0E00E946F158F01FF0F22
:10105000220B330BDC01CB01800F911FA21FB31FAA
:10106000F70181879287A387B48780E00F90DF9193
:10107000CF911F910F91FF90EF900895FC01808117
:1010800091810097E1F02381258724812687209193
:10109000320430913304308B2787728B618B2F5F42
:1010A0003F4F3093330420933204BF01635F7F4F7F
:1010B00046E050E00E94DF0621E0069709F020E0BC
:1010C000822F0895CF93DF93FC0180819181009757
:1010D00051F06115710539F0EA010E94DF0621E047
:1010E0008C179D0709F020E0822FDF91CF910895A2
:1010F0004F925F926F927F92AF92BF92CF92DF92A8
:10110000EF92FF920F931F93CF93DF93CDB7DEB78C
:101110008C01ADB6BEB6FC01E080F180E114F104B3
:10112000B9F14580568067807084D301C201019770
:10113000A109B1090897A105B10550F58DB79EB772
:10114000841995090FB6F8949EBF0FBE8DBFEDB7F9
:10115000FEB731966F01A2016FEF70E0CF010E94E0
:10116000AA151092330410923204A201B601C701ED
:101170000E94DF06AC0160E070E081E0F8010581CB
:10118000168127813085401751076207730709F0E0
:1011900080E00FB6F894BEBE0FBEADBEDF91CF911A
:1011A0001F910F91FF90EF90DF90CF90BF90AF9085
:1011B0007F906F905F904F9008959FB7F8948091C3
:1011C0003704811109C0229B2A9A229A8CB5806526
:1011D0008CBD84B1886284B9809137048F5F80931D
:1011E00037049FBF0895FC0110821182128213827E
:1011F0001582148216821782108611861286138633
:101200001486158616861786108A118A128A138A02
:10121000148A158A168A85B5836085BDF894EEE632
:10122000F0E080818160808378940895CF92DF928E
:10123000EF92FF92CF93DF93EC012FB7F894888160
:101240009981AA81BB812FBFCA84DB84EC84FD8491
:10125000BC01CD016C197D098E099F0928EE33E090
:1012600040E050E00E944D15211531054105510522
:10127000C1F08E819F81A885B985820F931FA41F1D
:10128000B51F8E839F83A887B987A8EEB3E00E941D
:101290006F15C60ED71EE81EF91ECA86DB86EC86C1
:1012A000FD862FB7F89488819981AA81BB812FBFD1
:1012B000CA88DB88EC88FD88BC01CD016C197D09EA
:1012C0008E099F0928EE33E040E050E00E944D1562
:1012D0002115310541055105C1F08E859F85A889ED
:1012E000B989820F931FA41FB51F8E879F87A88B74
:1012F000B98BA8EEB3E00E946F15C60ED71EE81E8C
:10130000F91ECA8ADB8AEC8AFD8A6E817F81888514
:101310009985DF91CF91FF90EF90DF90CF90089566
:101320000F931F93FC0186819781A085B1858A0167
:101330009B01081B190B2A0B3B0BD901C8014683E3
:1013400057836087718721E0268B2FB7F8944081FF
:101350005181628173812FBF42875387648775876C
:10136000BC01CD011F910F9108951F920F920FB6EE
:101370000F9211240F931F932F933F934F935F93DB
:101380006F937F938F939F93AF93BF93EF9340910E
:1013900038045091390460913A0470913B04809173
:1013A0003C0490913D04A0E0B0E08C019D011E5FE3
:1013B0002F4F3F4F0137E2E01E072105310550F066
:1013C0008C019D0101571109210931094F5F5F4FC0
:1013D0006F4F7F4F10933D0400933C0440933804BB
:1013E0005093390460933A0470933B04EF91BF919A
:1013F000AF919F918F917F916F915F914F913F91AD
:101400002F911F910F910F900FBE0F901F90189565
:1014100088E394E00C94F3088EE480937C0087E8E2
:1014200093E10197F1F700C0000080917A00806499
:1014300080937A0080917A0086FDFCCF209178001D
:101440008091790030E0382B032E000C440B550BB3
:10145000211531054105510539F064EB7BE281E14D
:1014600090E00E944D1503C020E030E0A901CA01C0
:10147000B9010895FC0186E191E091838083128295
:1014800084EB90E094838383968385831782108610
:1014900011861286399A41980895FC01DB01CA0130
:1014A0004E97A109B1098F309140A105B10570F4A3
:1014B00083819481A0E0B0E084179507A607B70761
:1014C00039F0548343835683458302C080E00895F6
:1014D00081E008950F931F93CF93DF93CDB7DEB7CD
:1014E00027970FB6F894DEBF0FBECDBFFC018B016E
:1014F00082818983838194819B838A83858196817C
:101500009D838C8385E292E00E9499039F838E8362
:101510000115110511F480E00FC067E070E0C8010B
:101520000E943E088823B9F347E050E0BE016F5F98
:101530007F4FC8010E94620827960FB6F894DEBF5D
:101540000FBECDBFDF91CF911F910F910895CF9224
:10155000DF92EF92FF921F93CF93DF936B0185E2AF
:1015600092E00E949903EC01F60185819681009733
:1015700021F08C179D0708F4EC0185E08C9FB001E9
:101580008D9F700D1124C6010E943E08182F8111F5
:1015900002C010E01FC060E085E292E00E94AE034E
:1015A000BE0185E292E00E94BA03E12CF12CEC1618
:1015B000FD0681F085E292E00E94F50245E050E0F0
:1015C000BC01C6010E946208882319F3FFEFEF1ADD
:1015D000FF0AEDCF812FDF91CF911F91FF90EF9008
:1015E000DF90CF900895CF93DF936115710521F0BF
:1015F000FB012381213011F080E03FC0FB012481F9
:10160000223021F4DF91CF910C946A0A233020F527
:1016100021111CC0FC012281211104C023813481CD
:1016200036832583EC0181E08A8388E394E00E947D
:1016300016098091460490914704A0914804B09106
:1016400049048F839887A987BA8704C02130A1F6FF
:10165000FC01128281E011C0233049F4FB01458175
:10166000568167817085DF91CF910C944D0A2430AB
:1016700019F6DF91CF910C94A70ADF91CF910895CD
:10168000FC0170AB67A7E253FF4F9C012C5C3F4FFE
:10169000318320833C9628553F4F318320832C5043
:1016A0003109FC0130A727A308958F929F92AF9232
:1016B000BF92CF92DF92EF92FF920F931F93CF933F
:1016C000DF93EC017B01CBA8D12C860108501109D6
:1016D000DB0116969C918CE6890F833020F0983CB4
:1016E00009F0CFC003C0943909F4E4C08BE6890F38
:1016F000823018F0983C09F08EC06E0158EDC50E8E
:10170000D11CD6012D913C91A801420F531F4139A4
:10171000510520F0C952DF4F1882B1C05E01B7ED0C
:10172000AB0EB11CF5018081882309F415C19639EF
:1017300029F0D70117969C919813A1C0FE01EC5295
:10174000FF4F40815181F7018481958148175907E6
:1017500009F095C04E01FAED8F0E911CD4018D91C8
:101760009C91A801BE01615F7F4F820F931F0E9471
:101770008F15F60180819181080F191F1183008355
:10178000D70116968C91863929F0F5018081815018
:10179000808373C0D5011C92F7018781FE01EA5254
:1017A000FF4F8083833809F483C07E01FEECEF0E87
:1017B000F11CF701A081B181CE018A1B9B0B8C53D8
:1017C0009F4F80179107FCF032968AE001900D92AE
:1017D0008A95E1F7D7018D919C91F4016081718127
:1017E000D6014D915C910A960E948F15F601808179
:1017F00091810A96D7012D913C911197820F931FE9
:101800008D939C933AC08FA598A90E94CF118AA569
:1018100081608AA734C07E01BEECEB0EF11CF7019B
:10182000A081B181CE01C4969D01281B390BC9014D
:10183000800F911F8B39910510F5E75CF10988E065
:1018400001900D928A95E1F7D701ED91FC911197E6
:10185000118700878D919C91BE01615F7F4FA80128
:101860000A960E948F15B2E0CB0ED11CF701808141
:101870009181C80ED91ED182C08281E06DC080E006
:101880006BC0933841F6DE01A053BF4FFE0137967F
:1018900088E001900D928A95E1F7FE01E652FF4F34
:1018A000CE010F9691838083C852DF4F198308833E
:1018B00082E052C0F70187818B3908F02BCFFE01FF
:1018C000EC52FF4F40815181D70114962D913C91EC
:1018D000159734976F014217530739F440815181AE
:1018E0002D913C914217530741F2F8E18F9FC001BF
:1018F0001124FE01E253FF4F20813181AE01421BD2
:10190000530B9A012C533F4F281739073CF48AA5F3
:1019100081608AA78FA598A90E94CF11FE013796F2
:1019200088E0D60101900D928A95E1F7FE01E6521A
:10193000FF4FBE01615F7F4FA801808191810E94AE
:101940008F15FE01E852FF4F11830083C952DF4F0C
:1019500088818150888391CFDF91CF911F910F9122
:10196000FF90EF90DF90CF90BF90AF909F908F90BF
:101970000895FC01E253FF4F9C012C5C3F4F81E036
:10198000408151812417350708F080E00895FC015B
:10199000F496DC01A253BF4F2D913C91E217F3075F
:1019A00060F428E0DB0101900D922A95E1F7FC013B
:1019B000EC56FF4F80819181089580E090E008957A
:1019C000CF92DF92EF92FF920F931F93CF93DF930B
:1019D0008C01CA01680144E3C40ED11C7801EEEC0D
:1019E000EE0EF11CF70140815181C416D50678F541
:1019F00048E0F601DB0101900D924A95E1F7F8010C
:101A0000C4ADD5AD2115310551F0AE012C173D0700
:101A100008F4A901B801625C7F4F0E948F154AE962
:101A200050E04C1B5D0BBE01625C7F4F600F711F6D
:101A3000C6010E94981586EF9FEF8C1B9D0BF70146
:101A400020813181820F931F9183808302C0C0E087
:101A5000D0E0CE01DF91CF911F910F91FF90EF90D9
:101A6000DF90CF900895FC01E159FE4F2081318134
:101A7000AB0142235323FC0181A992A948175907BE
:101A800061F42095309583E0220F331F8A95E1F7AA
:101A90002623372381E0232B09F080E00895AF92BD
:101AA000BF92CF92DF92EF92FF920F931F93CF934B
:101AB000DF931F92CDB7DEB77C015B01FC01E459D7
:101AC000FE4FC080D18032964081FB01828100812F
:101AD0001181823028F0680181E0838340E022C0D8
:101AE000B801C70149830E94330D4981811118C093
:101AF000F701E159FE4F20813181B8016223732340
:101B0000F70181A992A96817790761F483E0220F90
:101B1000331F8A95E1F727606801C222D32201C0F2
:101B2000680145E0F501D182C082428381E00F90D7
:101B3000DF91CF911F910F91FF90EF90DF90CF90A9
:101B4000BF90AF900895FC0141A952A92FEF3FEF3C
:101B5000B90164237523672B31F0B3E0220F331FE3
:101B6000BA95E1F7F5CF20953095FC01E159FE4F8C
:101B700031832083A3E036952795AA95E1F7339723
:101B8000B90164237523718360832115310559F0F0
:101B900063E0569547956A95E1F773E0369527958A
:101BA0007A95E1F7F2CFFC01E259FE4F40830895A8
:101BB0006115710559F0862F87708150853040F48A
:101BC00083E0769567958A95E1F7F2CF81E00895F5
:101BD00080E00895CF93DF93CDB7DEB728970FB697
:101BE000F894DEBF0FBECDBF2CEC2A832B832C8351
:101BF0002D831E821F82188621E00097A1F0A1E0AC
:101C0000B0E0AC0FBD1FA20FB11DFC01E770FF27B4
:101C1000E85EFE4F30813C9333E0969587953A9588
:101C2000E1F72F5FEACFE62FF0E0E85EFE4F20817C
:101C30003A814B815C816D817E818F819885289668
:101C40000FB6F894DEBF0FBECDBFDF91CF910895E0
:101C5000AF92BF92DF92EF92FF920F931F93CF93B9
:101C6000DF93EC01162F5A01BA010E94D80D882388
:101C700009F454C0BAAAA9AA8FA598A9009709F493
:101C80004DC01F3F19F0612F0E94C81140E060E075
:101C90008FA598A90E946A148FA598A90E944F1435
:101CA00089A99AA966E070E00E942515682F660F41
:101CB0006B5F45E08FA598A90E941C1589E190E013
:101CC000A0E0B0E089839A83AB83BC838BE490E08F
:101CD0009E838D83CE010E94A30D86E0D82EDA94D8
:101CE0008FEFD81671F06D2DC5010E94EA0D7901B4
:101CF0008A019B01AC016D2D8FA598A90E948513C7
:101D0000EECF8FA598A9DF91CF911F910F91FF90F2
:101D1000EF90DF90BF90AF900C941214DF91CF91B1
:101D20001F910F91FF90EF90DF90BF90AF900895BB
:101D30009F92AF92BF92CF92DF92EF92FF920F935A
:101D40001F93CF93DF93EC01CB01F22E642F0E94FF
:101D5000EA0D8901942EA52EB62EC72ED82EE92E77
:101D60008AA582FD04C08FA598A90E94CF118FA5D6
:101D700098A9FF2011F040E001C041E060E00E941E
:101D80006A14292D3A2D4B2D5C2D6D2D7E2D8FA59E
:101D900098A90E944A132F2D4BA9BE01695F7F4F5E
:101DA0008FA598A90E947412182F8AA582FD10C0D1
:101DB00049815A816B817C8120E08FA598A90E947E
:101DC000A912182F40E060E08FA598A90E946A141C
:101DD000812FDF91CF911F910F91FF90EF90DF90B6
:101DE000CF90BF90AF909F900895CF92DF92EF92E7
:101DF000FF920F931F93CF93DF9300D000D0CDB706
:101E0000DEB78C016B01F42EFC01E5840E94D80D35
:101E1000882309F4A5C08FEB8E0DEE24E3948F3751
:101E200008F0E12C19821A821B821C82DA82C98294
:101E3000FB82BE016F5F7F4FC8010E944F0D698119
:101E40007A812C814B81C8010E94980EF1E0FF122B
:101E500027C0811102C0F12C7AC089819A818C152A
:101E60009D0501F5EE20F1F081ECF8018587878171
:101E70009085928781879A838983FB821C82BE0129
:101E80006F5F7F4FC8010E944F0D88E0F80183AB60
:101E900069817A812C814B81C8010E94980E02C011
:101EA0008823C9F289819A818C159D0519F4FF2434
:101EB000F3944DC0FF2019F0F3E0FF12F8CFEE20AD
:101EC000B1F3F80182A582FF13C041815281638181
:101ED000748120E087A590A90E94A912F80182A52B
:101EE0008B7F82A740E060E087A590A90E946A14DA
:101EF000F80187A590A90E9412148FB7F894C0909A
:101F00003804D0903904E0903A04F0903B048FBF3D
:101F1000C8010E94BD0F813C51F28FB7F8944091E7
:101F200038045091390460913A0470913B048FBF9A
:101F30004C195D096E097F09F80185819681A0E041
:101F4000B0E084179507A607B70710F784CFF8010C
:101F500082A582FD04C087A590A90E9412148F2D2E
:101F60000F900F900F900F90DF91CF911F910F91D5
:101F7000FF90EF90DF90CF900895AF92BF92CF92F5
:101F8000DF92EF92FF920F931F93CF93DF931F92F5
:101F9000CDB7DEB7FC0192A5892F827091FD18C0E4
:101FA000DF01A253BF4FAF014C5C5F4F90FD08C0F3
:101FB0002D913C911197241B350B2937310544F0A5
:101FC0002D913C914217530708F489C09E7F92A738
:101FD0008F016F0187E0C80ED11C84E2A82E89E032
:101FE000B82EBE016F5F7F4FF80187A590A90E94B0
:101FF0002013882309F473C0F80187A590A90E94D3
:10200000FF12F80183AB883038F4EFE4F3EC31973A
:10201000F1F700C00000E5CF482FB601F80187A511
:1020200090A90E943E13F801E184F284B701C8012F
:102030000E94D80D8823A9F2F801858521A932A92B
:10204000E216F30609F045C0823859F28038C9F427
:10205000F4E2EF16F9E0FF0611F1F801B286A1866D
:1020600042E064E279E0C8010E94F50E8FE493EC4F
:102070000197F1F700C00000F8016185728542E028
:102080002AC0833C61F4E114F10449F0F801F086C0
:10209000E7821286118640E060E070E01CC0F80123
:1020A00091A5992319F087FF0BC002C0813C41F430
:1020B0009CE6980F933020F0883C11F0833879F437
:1020C000B601C8010E94550B823009F08ACF83E81F
:1020D00006C041E0B701C8010E94F50E82CF0F9003
:1020E000DF91CF911F910F91FF90EF90DF90CF90F4
:1020F000BF90AF90089580913604882399F02FB750
:10210000F89480913604813059F48DB3809334046F
:102110009DB380913504809589238DBB2FBF02C06C
:102120002093340480E58CBD81E08DBD2A9881E246
:102130008A95F1F7000008952A9A81E28A95F1F7CD
:10214000000080913604882361F09FB7F8942091B5
:10215000360480913404213019F48DBB9FBF08955B
:102160008FBF08958EBD0DB407FEFDCF8EB50895C7
:10217000CF93DF931F92CDB7DEB769830E947B10A8
:102180006981862F8F710E94B2108FEF0E94B2106A
:1021900089830E949C1089810F90DF91CF910895CF
:1021A000EF92FF920F931F93CF93DF9300D01F9274
:1021B000CDB7DEB7142F2A835B8369830E947B101F
:1021C0006981862F8F7180620E94B210082FE12EE4
:1021D0005B81F52E2A81120F1E1531F0F7018191D6
:1021E0007F010E94B210F8CF0E949C10802F0F90A8
:1021F0000F900F90DF91CF911F910F91FF90EF9073
:1022000008951F93CF93DF9300D0CDB7DEB74A83F5
:1022100069830E947B106981862F8F7180620E9482
:10222000B210182F4A81842F0E94B2100E949C1075
:10223000812F0F900F90DF91CF911F910895DF9222
:10224000EF92FF920F931F93CF93DF9300D01F92D3
:10225000CDB7DEB7FC01822FE380D42EE41608F45C
:10226000DE2C9481911102C0ED1801C0E12C6A832B
:102270007B8389830E947B1089810E94B210F82E93
:102280006A81062F7B81172FD60ED01631F0F80108
:1022900081918F010E94B210F8CFEE2029F080E0EA
:1022A0000E94B210EA94F9CF0E949C108F2D0F90DB
:1022B0000F900F90DF91CF911F910F91FF90EF90B2
:1022C000DF900895DF92EF92FF920F931F93CF93C9
:1022D000DF9300D0CDB7DEB7FC01E380D42EE41647
:1022E00008F4DE2CFC018481811102C0ED1801C0CC
:1022F000E12C69837A830E947B1081E60E94B210F0
:10230000F82E6981062F7A81172FD60ED01639F054
:102310008FEF0E94B210F80181938F01F7CFEE206A
:1023200029F08FEF0E94B210EA94F9CF0E949C101E
:102330008F2D0F900F90DF91CF911F910F91FF90F4
:10234000EF90DF900895CF93DF931F92CDB7DEB764
:1023500069830E947B1089810E94B21089830E9448
:102360009C1089810F90DF91CF91089562EE0C94BB
:10237000A31161EE0C94A3116FEF0C94A311FC0157
:10238000128280E28383148285E082871582089519
:10239000462F6E3708F04DE765E00C9401110F935E
:1023A0001F93CF93DF93CDB7DEB728970FB6F8947E
:1023B000DEBF0FBECDBF8C0129981D821E821F82F9
:1023C00018864D815E816F817885F80183859485BB
:1023D000A585B685481759076A077B0780F486E00C
:1023E0008A95F1F700C08D819E81AF81B8850196F5
:1023F000A11DB11D8D839E83AF83B887E2CF6DE1B0
:10240000C8010E94B81081FF25C019821A821B8260
:102410001C8249815A816B817C81F8018385948576
:10242000A585B685481759076A077B0780F4F6E04B
:10243000FA95F1F700C089819A81AB81BC81019640
:10244000A11DB11D89839A83AB83BC83E2CFC801F0
:102450000E94B91160E0C8010E94B810482F4E7F59
:1024600060E0C8010E94011162E0C8010E94B8103A
:10247000E4E7F0E0E49141E050E001C0440FEA9568
:10248000EAF7482B62E0C8010E94011128960FB6B6
:10249000F894DEBF0FBECDBFDF91CF911F910F919A
:1024A0000895CF93DF93EC0160E00E94B81081FDA6
:1024B0000CC0482F426060E0CE010E94011187EA03
:1024C00091E60197F1F700C00000DF91CF910895E8
:1024D0000F93211102C020EA01C020EB0E941F11BE
:1024E0000111299A0F910895CF92DF92EF92FF92F6
:1024F0000F93CF93DF9300D0CDB7DEB76C017B0194
:10250000C6012A8349830E94BC112A81498180FF28
:1025100010C0C6012A8349830E94BC112A814981C7
:1025200084FFEECF40E167E0C6010E94011180E028
:1025300006C001E0B701C6010E94681281E00F9059
:102540000F90DF91CF910F91FF90EF90DF90CF90A0
:1025500008958F929F92AF92BF92CF92DF92EF92A7
:10256000FF92CF93DF93EC014A015B01222319F024
:102570000E94CF11299A8FB7F894C0903804D09058
:102580003904E0903A04F0903B048FBF67E1CE013C
:102590000E94B81084FD26C0CE010E94BC1184FFA9
:1025A000F5CF40E167E0CE010E9401112998299AF8
:1025B0002FB7F8948091380490913904A0913A048F
:1025C000B0913B042FBF8C199D09AE09BF09881536
:1025D0009905AA05BB05D0F22998CE010E94B91130
:1025E00080E002C0299881E0DF91CF91FF90EF90C9
:1025F000DF90CF90BF90AF909F908F9008950F93F2
:102600001F93CF938C010E947B1080E60E94B21032
:102610008FEF0E94B210C82F0E949C10C13258F058
:10262000C8010E94B6118FE097E20197F1F700C050
:10263000000080E001C08C2FCF911F910F91089571
:102640000F931F93CF93DF938C01EB0167E10E94FF
:10265000B81080FD0BC0209759F0C8010E94BC1132
:1026600090E0959587958770888302C080E001C0CF
:1026700081E0DF91CF911F910F910895CF93DF9368
:10268000EC010E94621140E767E0CE01DF91CF913B
:102690000C940111EF92FF920F931F93CF93DF934E
:1026A000CDB7DEB728970FB6F894DEBF0FBECDBF0B
:1026B0007C0109831A832B833C834D835E836F8364
:1026C0007887FC012285AE014F5F5F4F6AE00E9470
:1026D000D010F7012285AE014F5F5F4F60E1C70167
:1026E0000E94D010F701438161E1C7010E940111EE
:1026F00028960FB6F894DEBF0FBECDBFDF91CF9105
:102700001F910F91FF90EF900895AF92BF92DF92CB
:10271000EF92FF920F931F93CF93DF93CDB7DEB766
:1027200028970FB6F894DEBF0FBECDBF5C01D62E42
:10273000E982FA820B831C832D833E834F83588763
:1027400061110AC0FC01428550E0BE016F5F7F4FFE
:1027500005960E948F1507C0F6E0F61708F435C0FD
:1027600081E0681308C0ED2DF0E0E259FF4F64915D
:10277000F501228506C0E62FF0E0E259FF4F649193
:1027800021E0AE014F5F5F4FC5010E94D0100D2DBB
:1027900010E0F801E859FF4F6491F5014381C5014C
:1027A0000E94011162E0C5010E94B810F801EC58C6
:1027B000FF4FE49141E050E001C0440FEA95EAF791
:1027C000482B62E0C5010E94011128960FB6F894CB
:1027D000DEBF0FBECDBFDF91CF911F910F91FF9054
:1027E000EF90DF90BF90AF9008950F931F93CF931A
:1027F0008C01C62F62E00E94B810EC2FF0E0EC587C
:10280000FF4FE49121E030E001C0220FEA95EAF7A2
:102810002095422F482362E0C801CF911F910F916C
:102820000C940111CF93DF93EC010E94511260E0F0
:10283000CE010E94B810482F416060E0CE010E9496
:10284000011140E767E0CE010E940111299A8D81B4
:10285000882349F02A85AE014B5F5F4F6AE0CE01C5
:102860000E94D01004C060E0CE010E94F5136DE11B
:10287000CE010E94B81081FF05C0CE01DF91CF913B
:102880000C94B911DF91CF9108950E947B1080E5DF
:102890000E94B21083E70E94B2100C949C10CF9358
:1028A000DF93EC016DE10E94B810482F44606DE1A8
:1028B000CE010E9401116CE1CE010E94B810482F98
:1028C0004F636CE1CE010E94011181E08C83DF91A6
:1028D000CF9108950F931F93CF93DF936730D0F478
:1028E000D42FC62F8C0161E00E94B81041E050E067
:1028F00001C0440FCA95EAF7DD2311F0482B02C04E
:102900004095482361E0C801DF91CF911F910F915D
:102910000C940111DF91CF911F910F9108950F93A6
:102920001F93CF93DF938C01D62F66E00E94B810DF
:10293000C82FC77DD23031F4C0628BE990E0A0E0AF
:10294000B0E00CC0D13029F085E590E0A0E0B0E027
:1029500005C0C86081E490E0A0E0B0E0F8018387A2
:102960009487A587B6874C2F66E0C8010E940111A5
:1029700066E0C8010E94B81091E08C1390E0892FA6
:10298000DF91CF911F910F9108951F93CF93DF9304
:10299000EC0187EA91E60197F1F700C000004CE0F6
:1029A00060E0CE010E9401114FE564E0CE010E947B
:1029B000011162E0CE010E948F14882311F081E0A2
:1029C0008A8366E0CE010E94B810182F60E0CE0125
:1029D0000E948F14CE010E94451440E06DE1CE01AB
:1029E0000E94011140E06CE1CE010E94011140E71C
:1029F00067E0CE010E9401116CE4CE010E94C81173
:102A0000CE010E94B611CE010E94B911CE010E94E2
:102A1000511260E0CE010E94B810482F4E7F60E056
:102A2000CE010E940111115081E01E3F08F080E0AC
:102A3000DF91CF911F91089520E1629FB001112491
:102A40004F70462B64E00C940111AA1BBB1B51E193
:102A500007C0AA1FBB1FA617B70710F0A61BB70B0E
:102A6000881F991F5A95A9F780959095BC01CD01B3
:102A7000089597FB072E16F4009407D077FD09D030
:102A80000E94251507FC05D03EF4909581959F4F37
:102A90000895709561957F4F0895A1E21A2EAA1BA3
:102AA000BB1BFD010DC0AA1FBB1FEE1FFF1FA217FE
:102AB000B307E407F50720F0A21BB30BE40BF50BFB
:102AC000661F771F881F991F1A9469F76095709584
:102AD000809590959B01AC01BD01CF0108950E94A6
:102AE0008015A59F900DB49F900DA49F800D911D02
:102AF00011240895EE0FFF1F0590F491E02D099425
:102B0000A29FB001B39FC001A39F700D811D11242E
:102B1000911DB29F700D811D1124911D0895FB011F
:102B2000DC0102C001900D9241505040D8F7089549
:102B30006817790768F4FB01DC01E40FF51FA40FA7
:102B4000B51F02C002900E9241505040D8F7089530
:102B50000C948F15DC0101C06D9341505040E0F79B
:102B60000895DC01CB01FC01F999FECF06C0F2BD4E
:102B7000E1BDF89A319600B40D9241505040B8F73B
:102B80000895DC01CB0103C02D910E94CC1541506A
:102B90005040D0F70895262FF999FECF1FBA92BD65
:102BA00081BD20BD0FB6F894FA9AF99A0FBE01962E
:062BB0000895F894FFCF28
:102BB600000000004F01000000009500000000002A
:102BC600900600000000F30AC33C33CE3EE3EC005F
:00000001FF
