:100000000C9441000C9469000C9469000C946900F4
:100010000C9469000C9469000C9469000C946900BC
:100020000C9469000C9469000C9469000C946900AC
:100030000C9469000C9469000C9469000C9469009C
:100040000C94120A0C9469000C9460020C948A02BD
:100050000C9469000C9469000C9469000C9469007C
:100060000C9469000C9469001112131415160A0BF4
:100070000C0D0E0F000102030405B0023E04420401
:10008000650A11241FBECFEFD8E0DEBFCDBF11E05F
:10009000A0E0B1E0E2E4FDE202C005900D92A032E2
:1000A000B107D9F724E0A0E2B1E001C01D92AF345E
:1000B000B207E1F710E0C1E4D0E004C02197FE01EF
:1000C0000E944016CD33D107C9F70E9462040C94F8
:1000D0009F160C940000EF92FF920F931F93CF9303
:1000E000DF93009711F480E019C08A017B01EC01D5
:1000F000BA010E94CF088823B1F3E114F10419F486
:100100000115110559F0A801B701CE01DF91CF917A
:100110001F910F91FF90EF900C94F308DF91CF9116
:100120001F910F91FF90EF9008950F931F93CF931E
:10013000DF93CDB7DEB760970FB6F894DEBF0FBE82
:10014000CDBFFB0123812530D1F4248121111AC0B8
:100150008B01FC01BC016C5F7F4F20E130E0AE0100
:100160004F5F5F4F828193810E94A60D40E150E076
:10017000BE016F5F7F4FC8010E946B0004C081E029
:10018000243009F480E060960FB6F894DEBF0FBE0D
:10019000CDBFDF91CF911F910F91089524E031E001
:1001A000FC013183208312820895CB01009769F00E
:1001B000FB012381211109C02481233031F440E067
:1001C00050E060E070E00C946B0080E00895CF9305
:1001D000DF931416150616061706B4F4EC0188E32F
:1001E00094E00E94ED098A8181110FC088E394E0B8
:1001F0000E94A709AB01BC0121E085E292E00E94C8
:100200006A0381E08A8301C080E0DF91CF91089585
:100210008F929F92AF92BF92CF92DF92EF92FF9216
:100220000F931F93CF93DF93CDB7DEB72D970FB604
:10023000F894DEBF0FBECDBF8B0188E394E00E942F
:10024000A70969837A838B839C838FB7F894409145
:1002500038045091390460913A0470913B048FBF87
:100260008091460490914704A0914804B0914904BC
:10027000C0904A04D0904B04E0904C04F0904D04A0
:100280004C195D096E097F094C015D012FEF821A3F
:10029000920AA20AB20A483E23E05207610571059C
:1002A00068F028EEC20E23E0D21EE11CF11C485E6D
:1002B000534061097109D501C401E6CFC0924A04D7
:1002C000D0924B04E0924C04F0924D04809346048B
:1002D00090934704A0934804B09349048D839E8370
:1002E000AF83B8870E94690A69877A878B879C8762
:1002F0003A9B02C098B101C096B192FB992790F940
:100300009D874DE050E0BE016F5F7F4FC8010E94A6
:100310006B002D960FB6F894DEBF0FBECDBFDF91F8
:10032000CF911F910F91FF90EF90DF90CF90BF90F2
:10033000AF909F908F900895CF93DF939C016115AC
:10034000710521F0FB018381882311F080E040C01A
:10035000FB019481923029F4C901DF91CF910C9473
:100360000801933098F4911105C0CB01DF91CF9132
:100370000C940909913051F7FB0145815681678141
:100380007085C901DF91CF910C94E700943019F486
:100390003A9881E01DC0943058F499E088E10FB696
:1003A000F894A895809360000FBE90936000FFCFF3
:1003B000953061F6EB0185E292E00E94B60340E0E1
:1003C00050E060E070E0CE01DF91CF910C946B00C3
:1003D000DF91CF9108952AE031E0FC013183208341
:1003E000138212820895FC018481DF01A80FB11DE0
:1003F000AB57BF4F8C91248130E02F5F3F4F2F7759
:10040000332724838093C6008091C000806480934A
:10041000C00093818481981305C08091C1008F7DB5
:100420008093C1000895FC01108211821282138210
:1004300014820895CF92DF92EF92FF920F931F9351
:10044000CF93DF93EC016A017B0160EA75E286E2FB
:1004500090E0A70196010E9413168901015011092D
:10046000011580E1180770F01092C00060ED72E194
:1004700083E190E0A70196010E94131689010150C3
:10048000110903C082E08093C0001093C50000935F
:10049000C40086E08093C20088E18093C100F89494
:1004A0008091C10080688093C10078941882DF91A8
:1004B000CF911F910F91FF90EF90DF90CF90089513
:1004C0001F920F920FB60F9211242F933F938F9389
:1004D0009F93EF93FF932091C6008091210190E0BC
:1004E00001968F77992730912201381741F0E091DA
:1004F0002101F0E0E05EFE4F258380932101FF9112
:10050000EF919F918F913F912F910F900FBE0F9080
:100510001F9018951F920F920FB60F9211242F93D0
:100520003F934F935F936F937F938F939F93AF937B
:10053000BF93EF93FF9380E291E00E94F301FF915C
:10054000EF91BF91AF919F918F917F916F915F914B
:100550004F913F912F910F900FBE0F901F901895C4
:1005600080E291E00C941302FC011182108213824C
:1005700012821582148217821682108611861286C4
:100580001386148615860895CF93DF93EC016E8150
:100590007F8145E050E009960E9477168E819F8109
:1005A00005969F838E83288139818217930714F0E3
:1005B0001F821E82DF91CF9108950F931F93CF93D7
:1005C000DF93EC018CEF93E0998388831B821A827E
:1005D0001D821C821F821E8218860E811F81CE0101
:1005E0000E94C40289859A85AB85BC8518161906B8
:1005F0001A061B062CF0892B8A2B8B2B49F027C05F
:100600008D85882321F18E819F81892B31F71FC031
:100610008D8581111CC08E819F819B838A83CE0131
:100620000E94C4021D830C8389859A85AB85BC8595
:10063000892B8A2B8B2B29F48D85811102C01B827B
:100640001A828A819B819F838E8381E001C080E032
:10065000DF91CF911F910F910895FC0186819781C1
:1006600005979783868397FF05C0808191810597C1
:10067000978386836681778145E050E0CF010996B4
:100680000C947716CF93DF93EC0128858E819F81A0
:10069000222361F02A813B818217930719F48C8110
:1006A0009D810BC0CE010E942D030FC02C813D8186
:1006B0008217930739F48A819B819F838E8380E020
:1006C00090E005C0CE010E94C402CE010996DF91E0
:1006D000CF9108950F931F93CF93DF93EC01498738
:1006E0005A876B877C872D878C01075F1F4F6C8132
:1006F0007D8145E050E0C8010E9487162C813D8134
:100700002B5F3F4F3D832C838881998128173907C0
:1007100014F01D821C8219861A861B861C861D8673
:100720006C817D8145E050E0C8010E9487168A8176
:100730009B812C813D818217930799F49C012B5F4B
:100740003F4F3B832A83488159812417350714F092
:100750001B821A822885211102C08A819B819F8376
:100760008E83DF91CF911F910F9108950F931F9367
:10077000CF93DF93EC011B821A821D821C821F82A1
:100780001E8219861A861B861C861D868C01075FB1
:100790001F4F6E817F8145E050E0C8010E9487169F
:1007A0002E813F812B5F3F4F3F832E83888199812C
:1007B0002817390714F01F821E822E813F81232BB8
:1007C00041F7DF91CF911F910F910895FC01608156
:1007D000718124813581260F371F82819381A90180
:1007E000481B590BCA010E94FF1565E070E00E948A
:1007F000EB15CB010895FC016087662319F0848115
:10080000958102C0828193819783868308950F9397
:100810001F93CF93DF936115710559F18B01EC01A3
:100820000E94E6030817190720F58885882359F0E8
:1008300085E0809F9001819F300D11248A819B81EA
:10084000820F931F0AC085E0809F9001819F300D29
:1008500011248C819D81821B930B9F838E836881E1
:1008600079818E819F81860F971F0E94FF159F833C
:100870008E83DF91CF911F910F91089585E292E0D1
:100880000C94B40260E271E08FE194E00E94D6071C
:100890008CE194E00E94CE0081E194E00E94970AEE
:1008A00080EC93E00E94CB0684EB93E00E94EB0186
:1008B00084EA93E00E94851264EA73E083E392E0A5
:1008C0000C94060C99E288E10FB6F894A8958093F1
:1008D00060000FBE9093600080917A0087688093DB
:1008E0007A00389A3A9A429840E051EE60E070E01F
:1008F00080E291E00E941A02C12CD12C760100E026
:1009000010E0980143E060E08FE194E00E94F4077A
:100910006FE174E08CE194E00E94D50085E292E002
:100920000E94DD020E946E0984EA93E00E948B150A
:10093000882369F040E050E06EE383E392E00E9498
:10094000EE0E83E392E09093B7038093B60390E8B2
:10095000292E312CC0E0D8E0A8958091B603909163
:10096000B703009781F10E9483108091B6039091A4
:10097000B7030E947F0D882331F168EB73E080910B
:10098000B6039091B7030E948D0D8091BE038C3405
:10099000D1F4C12CD12C760100E010E0980140E0A8
:1009A00065E08FE194E00E94F4076FE174E084EB6E
:1009B00093E00E949500811106C06FEF7FEF8FE1F9
:1009C00094E00E94CF0880E1A82EB12C25E420936A
:1009D0007C0080917A00806480937A0080917A0014
:1009E00086FDFCCF9091780080917900292F269583
:1009F000269530E4839FC0011124922F982B2091DB
:100A0000C5033091C603F9013196F093C603E09314
:100A1000C5034091C7035091C8038091C403E417F4
:100A2000F50709F05CC06091C9037091CA03409159
:100A3000CB035091CC034617570720F4DB01A41BCE
:100A4000B50B03C0DA01A61BB70BB093CF03A0937D
:100A5000CE03A091CE03B091CF03232F33272F5F76
:100A60003F4F8901000F111F200F311F2A173B072D
:100A700088F46417750740F48F3F11F08F5F07C04B
:100A80006417750748F002C0882331F081508093C5
:100A9000C40302C081E001C080E0309721F01092D1
:100AA000C6031092C5031092CA031092C903109294
:100AB000CC031092CB032091C403222311F0119692
:100AC00029F4D093C803C093C70320C08823F1F052
:100AD000EF2BE1F01092C8031092C70368C089178A
:100AE00058F02091C9033091CA032F5F3F4F3093D4
:100AF000CA032093C9030AC02091CB033091CC03D1
:100B00002F5F3F4F3093CC032093CB032091C7033B
:100B10003091C803232B09F04AC08091C303880F8A
:100B20008093C3032091C403291718F48160809334
:100B3000C3039091D0038091C30389278093C3039B
:100B400031E093279093D0039091C203992379F1D8
:100B50002091C5033091C60327703327232B39F525
:100B6000E091CD03E03448F491E09E0F9093CD03E3
:100B7000F0E0E054FC4F818B1AC0C12CD12C7601DF
:100B800000E010E0980140E063E08FE194E00E9413
:100B9000F4076FE174E080EC93E00E94210781117B
:100BA00006C06FEF7FEF8FE194E00E94CF0881E0F5
:100BB000A81AB10809F00ACF80911304882309F418
:100BC0008FC0409114045091150460E070E0809152
:100BD000180490911904A0911A04B0911B04EFB766
:100BE000F894009138041091390420913A0430911E
:100BF0003B04EFBF80904A0490904B04A0904C04BB
:100C0000B0904D04C0904604D0904704E090480452
:100C1000F0904904081919092A093B0926013701EE
:100C2000EFEF4E1A5E0A6E0A7E0A083EE3E01E07E8
:100C30002105310568F0E8EE8E0EE3E09E1EA11C52
:100C4000B11C085E13402109310973016201E6CF2E
:100C5000C0924604D0924704E0924804F0924904BE
:100C600080924A0490924B04A0924C04B0924D049E
:100C70004C195D096E097F09840F951FA61FB71FC8
:100C8000409116045091170460E070E084179507B6
:100C9000A607B70724F49093170480931604181638
:100CA00019061A061B06E4F010921304109217049A
:100CB00010921604419A2FEF38E08DE32150304016
:100CC0008040E1F700C00000419888E394E00E9472
:100CD000A709AB01BC0122E085E292E00E946A0311
:100CE00011E1E0911F04F09120048181228190E0C4
:100CF00080589F4F821B9109B1010E94FF15892BDB
:100D000009F42ACE91818281981769F08281DF01EE
:100D1000A80FB11D15966C91828190E001968F7796
:100D20009927828301C06FEF8FE194E00E940E0843
:100D3000811103C01150A9F60FCE80912204813099
:100D400039F46FE174E081E194E00E94500B08C037
:100D5000813078F46FE174E08CE194E00E949C01B2
:100D60008111FACD6FEF7FEF8FE194E00E94CF0801
:100D7000F3CD823039F46FE174E080EC93E00E94AF
:100D80002107EECF843071F76FE174E084EB93E0DC
:100D90000E949500E5CFFC0180E191E09183808382
:100DA000128213828FE784831682158280E098E096
:100DB0009087878312861186148613861586178678
:100DC0001686108A719680E4DF011D928A95E9F7F4
:100DD00008950F931F93CF93DF9300D000D01F92FD
:100DE000CDB7DEB7FC018481898381E0278130851E
:100DF000232B09F080E08A8382818B838685978507
:100E00009D838C836115710511F480E010C08B0106
:100E100065E070E0C8010E94CF088823B1F345E087
:100E200050E0BE016F5F7F4FC8010E94F3080F9032
:100E30000F900F900F900F90DF91CF911F910F9116
:100E40000895EF92FF920F931F93CF93DF93FC01CE
:100E5000DB0113968C911397833001F514968C91D6
:100E60001497811135C0E584EE2091F18B01EF01DB
:100E7000672B81F0F12CB701CD010E94CF088823A8
:100E800049F0A701BE016F5E7F4FC8010E94F308C1
:100E9000811102C01D861CC01D861BC08230B1F4AA
:100EA000DB0114968C91813079F058F0823081F416
:100EB000CF01DF91CF911F910F91FF90EF900C9494
:100EC000E90681E0828305C01586128281E001C0B7
:100ED00080E0DF91CF911F910F91FF90EF900895E7
:100EE000FF920F931F93CF93DF93FC01CA01DB01A5
:100EF000AB01480F591F11E0A417B50709F450C002
:100F00000D9110833381248132130CC02091C000D5
:100F100025FF08C00093C6002091C00020642093E4
:100F2000C000EACF238130E02F5F3F4F2F77332778
:100F3000F22E6481F61226C00FB607FCFACF60913C
:100F4000C00065FFF6CF6481EF01C60FD11DCB57FE
:100F5000DF4FC881648170E06F5F7F4F6F777727C5
:100F60006483C093C6006091C00060646093C00059
:100F7000738164817613DDCF6091C1006F7D6093D2
:100F8000C100D7CF3381EF01C30FD11DCB57DF4F46
:100F9000088323832091C10020622093C100ACCF3D
:100FA000DF91CF911F910F91FF900895FC01718304
:100FB0006083128286E083831482158216821782F0
:100FC000108611861286138614860895FC011282FB
:100FD00086E083831482158216821782108611861A
:100FE0001286138614860895CF92DF92EF92FF92B5
:100FF0000F931F93FC0184E0828363834483058302
:10100000168327833087C186D286E386F4861F91B4
:101010000F91FF90EF90DF90CF900895EF92FF92A5
:101020000F931F93CF93DF931F92CDB7DEB77C0151
:10103000DC0112968C91843029F4C70169830E94E7
:10104000E60769816D3009F4A1C06A3361F4F701E4
:101050008281813019F482E0828398C0823079F4F1
:1010600083E0D70140C06A3071F0D70112968C91AD
:10107000813089F4862F90E0C0970A97B8F1C701B4
:101080000E94E60783C0F70183818630C1F384E0C4
:10109000828381E07CC0813030F08230A1F18330E6
:1010A00009F453C073C06F7D633419F4F7011382E0
:1010B00012C0673511F481E007C0623511F482E097
:1010C00008C06E3429F484E0D70113968C9303C0D2
:1010D00086E0F7018383D70113968C9113978630AE
:1010E00009F454C081E012968C9350C0F7018481BA
:1010F0008A302CF6FAE08F9F600D11246053D701DF
:1011000014966C9343C070E0FB01F097EA30F10550
:1011100008F0B5CFD70115962D913D914D915C9179
:101120001897AAE0B0E00E9435168F01FF0F220B3E
:10113000330BDC01CB01800F911FA21FB31FF701FE
:1011400085839683A783B08721C070E0FB01F09769
:10115000EA30F10508F093CFD70119962D913D9112
:101160004D915C911C97AAE0B0E00E9435168F016A
:10117000FF0F220B330BDC01CB01800F911FA21F4D
:10118000B31FF70181879287A387B48780E00F9010
:10119000DF91CF911F910F91FF90EF900895FC0187
:1011A000808191810097E1F0238125872481268722
:1011B0002091320430913304308B2787728B618BFE
:1011C0002F5F3F4F3093330420933204BF01635F9E
:1011D0007F4F46E050E00E94700721E0069709F03B
:1011E00020E0822F0895CF93DF93FC0180819181CD
:1011F000009751F06115710539F0EA010E947007FE
:1012000021E08C179D0709F020E0822FDF91CF911C
:1012100008954F925F926F927F92AF92BF92CF925A
:10122000DF92EF92FF920F931F93CF93DF93CDB78F
:10123000DEB78C01ADB6BEB6FC01E080F180E114F2
:10124000F104B9F14580568067807084D301C201F2
:101250000197A109B1090897A105B10550F58DB70E
:101260009EB7841995090FB6F8949EBF0FBE8DBF27
:10127000EDB7FEB731966F01A2016FEF70E0CF01BD
:101280000E9470161092330410923204A201B6012B
:10129000C7010E947007AC0160E070E081E0F801D6
:1012A0000581168127813085401751076207730732
:1012B00009F080E00FB6F894BEBE0FBEADBEDF9160
:1012C000CF911F910F91FF90EF90DF90CF90BF9043
:1012D000AF907F906F905F904F9008959FB7F89474
:1012E00080913704811109C0229B2A9A229A8CB5D9
:1012F00080658CBD84B1886284B9809137048F5F2A
:10130000809337049FBF0895FC01108211821282DE
:101310001382158214821682178210861186128615
:1013200013861486158616861786108A118A128AE5
:10133000138A148A158A168A85B5836085BDF89448
:10134000EEE6F0E080818160808378940895CF920A
:10135000DF92EF92FF92CF93DF93EC012FB7F894D7
:1013600088819981AA81BB812FBFCA84DB84EC84E8
:10137000FD84BC01CD016C197D098E099F0928EE01
:1013800033E040E050E00E9413162115310541057D
:101390005105C1F08E819F81A885B985820F931F69
:1013A000A41FB51F8E839F83A887B987A8EEB3E0DB
:1013B0000E943516C60ED71EE81EF91ECA86DB86A9
:1013C000EC86FD866E817F8188859985DF91CF913E
:1013D000FF90EF90DF90CF9008950F931F93FC0143
:1013E00086819781A085B1858A019B01081B190B15
:1013F0002A0B3B0BD901C80146835783608771874D
:1014000021E0268B2FB7F89440815181628173814E
:101410002FBF4287538764877587BC01CD011F9119
:101420000F9108951F920F920FB60F9211240F93F0
:101430001F932F933F934F935F936F937F938F935C
:101440009F93AF93BF93EF93409138045091390429
:1014500060913A0470913B0480913C0490913D046A
:10146000A0E0B0E08C019D011E5F2F4F3F4F013780
:10147000E2E01E072105310550F08C019D01015766
:101480001109210931094F5F5F4F6F4F7F4F109353
:101490003D0400933C044093380450933904609316
:1014A0003A0470933B04EF91BF91AF919F918F915C
:1014B0007F916F915F914F913F912F911F910F916C
:1014C0000F900FBE0F901F90189588E394E00C9436
:1014D00084098EE480937C0087E893E10197F1F71B
:1014E00000C0000080917A00806480937A0080912F
:1014F0007A0086FDFCCF209178008091790030E061
:10150000382B032E000C440B550B211531054105DA
:10151000510539F064EB7BE281E190E00E94131603
:1015200003C020E030E0A901CA01B9010895FC011F
:1015300086E191E091838083128284EB90E0948332
:101540008383968385831782108611861286399A43
:1015500041980895FC01DB01CA014E97A109B10928
:101560008F309140A105B10570F483819481A0E092
:10157000B0E084179507A607B70739F05483438373
:101580005683458302C080E0089581E008950F935B
:101590001F93CF93DF93CDB7DEB727970FB6F8949D
:1015A000DEBF0FBECDBFFC018B01828189838381A9
:1015B00094819B838A83858196819D838C8385E238
:1015C00092E00E94E6039F838E830115110511F4BA
:1015D00080E00FC067E070E0C8010E94CF08882358
:1015E000B9F347E050E0BE016F5F7F4FC8010E9432
:1015F000F30827960FB6F894DEBF0FBECDBFDF917C
:10160000CF911F910F910895CF92DF92EF92FF92A9
:101610001F93CF93DF936B0185E292E00E94E60374
:10162000EC01F60185819681009721F08C179D07CA
:1016300008F4EC0185E08C9FB0018D9F700D1124A2
:10164000C6010E94CF08182F811102C010E01FC0F0
:1016500060E085E292E00E94FB03BE0185E292E039
:101660000E940704E12CF12CEC16FD0681F085E2C6
:1016700092E00E94420345E050E0BC01C6010E9496
:10168000F308882319F3FFEFEF1AFF0AEDCF812F3C
:10169000DF91CF911F91FF90EF90DF90CF90089551
:1016A0008F929F92AF92BF92CF92DF92EF92FF9272
:1016B0000F931F936115710521F0FB0123812130E8
:1016C00011F080E098C0FB012481223061F41F9169
:1016D0000F91FF90EF90DF90CF90BF90AF909F90D1
:1016E0008F900C94C70A233008F063C021115AC0B0
:1016F000FC012281211104C023813481368325839A
:1017000021E0FC0122832FB7F894409138045091D6
:10171000390460913A0470913B042FBF0091460454
:10172000109147042091480430914904C0904A0424
:10173000D0904B04E0904C04F0904D044C195D099E
:101740006E097F0948015901EFEF8E1A9E0AAE0A11
:10175000BE0A483EF3E05F076105710568F0F8EEE8
:10176000CF0EF3E0DF1EE11CF11C485E534061091F
:10177000710995018401E6CFC0924A04D0924B04CE
:10178000E0924C04F0924D040093460410934704F9
:101790002093480430934904FC0107831087218774
:1017A000328705C0213009F08CCFFC01128281E024
:1017B00022C0233089F4FB01458156816781708501
:1017C0001F910F91FF90EF90DF90CF90BF90AF905F
:1017D0009F908F900C94AA0A243009F072CF1F9129
:1017E0000F91FF90EF90DF90CF90BF90AF909F90C0
:1017F0008F900C94040B1F910F91FF90EF90DF904E
:10180000CF90BF90AF909F908F900895FC0170ABE8
:1018100067A7E253FF4F9C012C5C3F4F318320832D
:101820003C9628553F4F318320832C503109FC01D1
:1018300030A727A308958F929F92AF92BF92CF9225
:10184000DF92EF92FF920F931F93CF93DF93EC0100
:101850007B01CBA8D12C860108501109DB0116961B
:101860009C918CE6890F833020F0983C09F0CFC022
:1018700003C0943909F4E4C08BE6890F823018F074
:10188000983C09F08EC06E0158EDC50ED11CD601F2
:101890002D913C91A801420F531F4139510520F071
:1018A000C952DF4F1882B1C05E01B7EDAB0EB11C5B
:1018B000F5018081882309F415C1963929F0D701F3
:1018C00017969C919813A1C0FE01EC52FF4F4081E6
:1018D0005181F701848195814817590709F095C016
:1018E0004E01FAED8F0E911CD4018D919C91A801AF
:1018F000BE01615F7F4F820F931F0E945516F60154
:1019000080819181080F191F11830083D7011696DA
:101910008C91863929F0F50180818150808373C0D4
:10192000D5011C92F7018781FE01EA52FF4F8083A7
:10193000833809F483C07E01FEECEF0EF11CF70141
:10194000A081B181CE018A1B9B0B8C539F4F8017C6
:101950009107FCF032968AE001900D928A95E1F7AA
:10196000D7018D919C91F40160817181D6014D91D7
:101970005C910A960E945516F601808191810A9623
:10198000D7012D913C911197820F931F8D939C93BA
:101990003AC08FA598A90E9495128AA581608AA74E
:1019A00034C07E01BEECEB0EF11CF701A081B181C9
:1019B000CE01C4969D01281B390BC901800F911FD0
:1019C0008B39910510F5E75CF10988E001900D92E3
:1019D0008A95E1F7D701ED91FC9111971187008766
:1019E0008D919C91BE01615F7F4FA8010A960E9474
:1019F0005516B2E0CB0ED11CF70180819181C80E43
:101A0000D91ED182C08281E06DC080E06BC0933866
:101A100041F6DE01A053BF4FFE01379688E00190EA
:101A20000D928A95E1F7FE01E652FF4FCE010F9627
:101A300091838083C852DF4F1983088382E052C0AC
:101A4000F70187818B3908F02BCFFE01EC52FF4F55
:101A500040815181D70114962D913C91159734976F
:101A60006F014217530739F4408151812D913C9108
:101A70004217530741F2F8E18F9FC0011124FE0184
:101A8000E253FF4F20813181AE01421B530B9A017B
:101A90002C533F4F281739073CF48AA581608AA749
:101AA0008FA598A90E949512FE01379688E0D6016D
:101AB00001900D928A95E1F7FE01E652FF4FBE01BB
:101AC000615F7F4FA801808191810E945516FE01C0
:101AD000E852FF4F11830083C952DF4F8881815044
:101AE000888391CFDF91CF911F910F91FF90EF905D
:101AF000DF90CF90BF90AF909F908F900895FC01A2
:101B0000E253FF4F9C012C5C3F4F81E040815181AB
:101B10002417350708F080E00895FC01F496DC01F5
:101B2000A253BF4F2D913C91E217F30760F428E0D8
:101B3000DB0101900D922A95E1F7FC01EC56FF4F75
:101B400080819181089580E090E00895CF92DF92A6
:101B5000EF92FF920F931F93CF93DF938C01CA01F3
:101B6000680144E3C40ED11C7801EEECEE0EF11CCA
:101B7000F70140815181C416D50678F548E0F60199
:101B8000DB0101900D924A95E1F7F801C4ADD5ADA6
:101B90002115310551F0AE012C173D0708F4A901BC
:101BA000B801625C7F4F0E9455164AE950E04C1B19
:101BB0005D0BBE01625C7F4F600F711FC6010E940A
:101BC0005E1686EF9FEF8C1B9D0BF7012081318104
:101BD000820F931F9183808302C0C0E0D0E0CE01CA
:101BE000DF91CF911F910F91FF90EF90DF90CF90F9
:101BF0000895FC01E159FE4F20813181AB01422360
:101C00005323FC0181A992A94817590761F4209533
:101C1000309583E0220F331F8A95E1F7262337237F
:101C200081E0232B09F080E00895AF92BF92CF921C
:101C3000DF92EF92FF920F931F93CF93DF931F9248
:101C4000CDB7DEB77C015B01FC01E459FE4FC080DB
:101C5000D18032964081FB018281008111818230E6
:101C600028F0680181E0838340E022C0B801C70109
:101C700049830E94F90D4981811118C0F701E1598A
:101C8000FE4F20813181B80162237323F70181A9BE
:101C900092A96817790761F483E0220F331F8A95B0
:101CA000E1F727606801C222D32201C0680145E044
:101CB000F501D182C082428381E00F90DF91CF9104
:101CC0001F910F91FF90EF90DF90CF90BF90AF905A
:101CD0000895FC0141A952A92FEF3FEFB9016423F8
:101CE0007523672B31F0B3E0220F331FBA95E1F76C
:101CF000F5CF20953095FC01E159FE4F31832083CB
:101D0000A3E036952795AA95E1F73397B9016423A7
:101D10007523718360832115310559F063E0569571
:101D200047956A95E1F773E0369527957A95E1F73F
:101D3000F2CFFC01E259FE4F408308956115710511
:101D400059F0862F87708150853040F483E0769576
:101D500067958A95E1F7F2CF81E0089580E00895D4
:101D6000CF93DF93CDB7DEB728970FB6F894DEBFD9
:101D70000FBECDBF2CEC2A832B832C832D831E8298
:101D80001F82188621E00097A1F0A1E0B0E0AC0F1F
:101D9000BD1FA20FB11DFC01E770FF27E85EFE4FDB
:101DA00030813C9333E0969587953A95E1F72F5F24
:101DB000EACFE62FF0E0E85EFE4F20813A814B81CA
:101DC0005C816D817E818F81988528960FB6F8940D
:101DD000DEBF0FBECDBFDF91CF910895AF92BF920E
:101DE000DF92EF92FF920F931F93CF93DF93EC015B
:101DF000162F5A01BA010E949E0E882309F454C07E
:101E0000BAAAA9AA8FA598A9009709F44DC01F3FA7
:101E100019F0612F0E948E1240E060E08FA598A912
:101E20000E9430158FA598A90E94151589A99AA915
:101E300066E070E00E94EB15682F660F6B5F45E06F
:101E40008FA598A90E94E21589E190E0A0E0B0E09A
:101E500089839A83AB83BC838BE490E09E838D83DC
:101E6000CE010E94690E86E0D82EDA948FEFD81644
:101E700071F06D2DC5010E94B00E79018A019B01A0
:101E8000AC016D2D8FA598A90E944B14EECF8FA5A4
:101E900098A9DF91CF911F910F91FF90EF90DF9064
:101EA000BF90AF900C94D814DF91CF911F910F91F8
:101EB000FF90EF90DF90BF90AF9008959F92AF9208
:101EC000BF92CF92DF92EF92FF920F931F93CF9327
:101ED000DF93EC01CB01F22E642F0E94B00E89013A
:101EE000942EA52EB62EC72ED82EE92E8AA582FDB9
:101EF00004C08FA598A90E9495128FA598A9FF20CC
:101F000011F040E001C041E060E00E943015292D51
:101F10003A2D4B2D5C2D6D2D7E2D8FA598A90E94FD
:101F200010142F2D4BA9BE01695F7F4F8FA598A973
:101F30000E943A13182F8AA582FD10C049815A8148
:101F40006B817C8120E08FA598A90E946F13182FC8
:101F500040E060E08FA598A90E943015812FDF91A5
:101F6000CF911F910F91FF90EF90DF90CF90BF9096
:101F7000AF909F900895CF92DF92EF92FF920F93D0
:101F80001F93CF93DF9300D000D0CDB7DEB78C0185
:101F90006B01F42EFC01E5840E949E0E882309F457
:101FA000A5C08FEB8E0DEE24E3948F3708F0E12C63
:101FB00019821A821B821C82DA82C982FB82BE01CC
:101FC0006F5F7F4FC8010E94150E69817A812C8155
:101FD0004B81C8010E945E0FF1E0FF1227C0811102
:101FE00002C0F12C7AC089819A818C159D0501F57A
:101FF000EE20F1F081ECF80185878781908592874A
:1020000081879A838983FB821C82BE016F5F7F4F29
:10201000C8010E94150E88E0F80183AB69817A81BE
:102020002C814B81C8010E945E0F02C08823C9F237
:1020300089819A818C159D0519F4FF24F3944DC074
:10204000FF2019F0F3E0FF12F8CFEE20B1F3F80112
:1020500082A582FF13C0418152816381748120E097
:1020600087A590A90E946F13F80182A58B7F82A794
:1020700040E060E087A590A90E943015F80187A58F
:1020800090A90E94D8148FB7F894C0903804D090CB
:102090003904E0903A04F0903B048FBFC8010E94DD
:1020A0008310813C51F28FB7F894409138045091DD
:1020B000390460913A0470913B048FBF4C195D095B
:1020C0006E097F09F80185819681A0E0B0E0841750
:1020D0009507A607B70710F784CFF80182A582FD00
:1020E00004C087A590A90E94D8148F2D0F900F903F
:1020F0000F900F90DF91CF911F910F91FF90EF9074
:10210000DF90CF900895AF92BF92CF92DF92EF927F
:10211000FF920F931F93CF93DF931F92CDB7DEB73C
:10212000FC0192A5892F827091FD18C0DF01A25396
:10213000BF4FAF014C5C5F4F90FD08C02D913C91AB
:102140001197241B350B2937310544F02D913C9113
:102150004217530708F489C09E7F92A78F016F0131
:1021600087E0C80ED11C84E2A82E89E0B82EBE01FB
:102170006F5F7F4FF80187A590A90E94E61388231F
:1021800009F473C0F80187A590A90E94C513F8014E
:1021900083AB883038F4EFE4F3EC3197F1F700C00B
:1021A0000000E5CF482FB601F80187A590A90E944D
:1021B0000414F801E184F284B701C8010E949E0E64
:1021C0008823A9F2F801858521A932A9E216F30630
:1021D00009F045C0823859F28038C9F4F4E2EF16AC
:1021E000F9E0FF0611F1F801B286A18642E064E24F
:1021F00079E0C8010E94BB0F8FE493EC0197F1F7DF
:1022000000C00000F8016185728542E02AC0833C6D
:1022100061F4E114F10449F0F801F086E7821286D6
:10222000118640E060E070E01CC0F80191A59923A0
:1022300019F087FF0BC002C0813C41F49CE6980F67
:10224000933020F0883C11F0833879F4B601C8014E
:102250000E941B0C823009F08ACF83E806C041E05F
:10226000B701C8010E94BB0F82CF0F90DF91CF91C1
:102270001F910F91FF90EF90DF90CF90BF90AF90A4
:10228000089580913604882399F02FB7F8948091AF
:102290003604813059F48DB3809334049DB380911A
:1022A0003504809589238DBB2FBF02C02093340451
:1022B00080E58CBD81E08DBD2A9881E28A95F1F799
:1022C000000008952A9A81E28A95F1F70000809132
:1022D0003604882361F09FB7F894209136048091EA
:1022E0003404213019F48DBB9FBF08958FBF08952A
:1022F0008EBD0DB407FEFDCF8EB50895CF93DF934D
:102300001F92CDB7DEB769830E9441116981862F84
:102310008F710E9478118FEF0E94781189830E943B
:10232000621189810F90DF91CF910895EF92FF9212
:102330000F931F93CF93DF9300D01F92CDB7DEB7DB
:10234000142F2A835B8369830E9441116981862F40
:102350008F7180620E947811082FE12E5B81F52E2B
:102360002A81120F1E1531F0F70181917F010E9421
:102370007811F8CF0E946211802F0F900F900F906C
:10238000DF91CF911F910F91FF90EF9008951F93D0
:10239000CF93DF9300D0CDB7DEB74A8369830E9425
:1023A00041116981862F8F7180620E947811182FE8
:1023B0004A81842F0E9478110E946211812F0F9010
:1023C0000F90DF91CF911F910895DF92EF92FF92CE
:1023D0000F931F93CF93DF9300D01F92CDB7DEB73B
:1023E000FC01822FE380D42EE41608F4DE2C9481C5
:1023F000911102C0ED1801C0E12C6A837B838983AF
:102400000E94411189810E947811F82E6A81062F5D
:102410007B81172FD60ED01631F0F80181918F01F4
:102420000E947811F8CFEE2029F080E00E94781108
:10243000EA94F9CF0E9462118F2D0F900F900F90A8
:10244000DF91CF911F910F91FF90EF90DF90089552
:10245000DF92EF92FF920F931F93CF93DF9300D001
:10246000CDB7DEB7FC01E380D42EE41608F4DE2CF1
:10247000FC018481811102C0ED1801C0E12C698347
:102480007A830E94411181E60E947811F82E6981B9
:10249000062F7A81172FD60ED01639F08FEF0E94B3
:1024A0007811F80181938F01F7CFEE2029F08FEF9B
:1024B0000E947811EA94F9CF0E9462118F2D0F903B
:1024C0000F90DF91CF911F910F91FF90EF90DF90D0
:1024D0000895CF93DF931F92CDB7DEB769830E9433
:1024E000411189810E94781189830E94621189813A
:1024F0000F90DF91CF91089562EE0C94691261EE16
:102500000C9469126FEF0C946912FC01128280E244
:102510008383148285E0828715820895462F6E3763
:1025200008F04DE765E00C94C7110F931F93CF930C
:10253000DF93CDB7DEB728970FB6F894DEBF0FBE96
:10254000CDBF8C0129981D821E821F8218864D8165
:102550005E816F817885F80183859485A585B68530
:10256000481759076A077B0780F486E08A95F1F7D8
:1025700000C08D819E81AF81B8850196A11DB11DDE
:102580008D839E83AF83B887E2CF6DE1C8010E943F
:102590007E1181FF25C019821A821B821C8249810B
:1025A0005A816B817C81F80183859485A585B685E8
:1025B000481759076A077B0780F4F6E0FA95F1F7A8
:1025C00000C089819A81AB81BC810196A11DB11D9A
:1025D00089839A83AB83BC83E2CFC8010E947F12B8
:1025E00060E0C8010E947E11482F4E7F60E0C80164
:1025F0000E94C71162E0C8010E947E11E4E7F0E08A
:10260000E49141E050E001C0440FEA95EAF7482B1D
:1026100062E0C8010E94C71128960FB6F894DEBF89
:102620000FBECDBFDF91CF911F910F910895CF9332
:10263000DF93EC0160E00E947E1181FD0CC0482F09
:10264000426060E0CE010E94C71187EA91E60197DF
:10265000F1F700C00000DF91CF9108950F93211191
:1026600002C020EA01C020EB0E94E5110111299A65
:102670000F910895CF92DF92EF92FF920F93CF9335
:10268000DF9300D0CDB7DEB76C017B01C6012A8392
:1026900049830E9482122A81498180FF10C0C601AD
:1026A0002A8349830E9482122A81498184FFEECFC6
:1026B00040E167E0C6010E94C71180E006C001E06A
:1026C000B701C6010E942E1381E00F900F90DF9199
:1026D000CF910F91FF90EF90DF90CF9008958F9260
:1026E0009F92AF92BF92CF92DF92EF92FF92CF93E1
:1026F000DF93EC014A015B01222319F00E9495123D
:10270000299A8FB7F894C0903804D0903904E0909B
:102710003A04F0903B048FBF67E1CE010E947E1126
:1027200084FD26C0CE010E94821284FFF5CF40E1D5
:1027300067E0CE010E94C7112998299A2FB7F89413
:102740008091380490913904A0913A04B0913B04EF
:102750002FBF8C199D09AE09BF0988159905AA05D7
:10276000BB05D0F22998CE010E947F1280E002C002
:10277000299881E0DF91CF91FF90EF90DF90CF908B
:10278000BF90AF909F908F9008950F931F93CF931A
:102790008C010E94411180E60E9478118FEF0E9407
:1027A0007811C82F0E946211C13258F0C8010E94EE
:1027B0007C128FE097E20197F1F700C0000080E003
:1027C00001C08C2FCF911F910F9108950F931F93EC
:1027D000CF93DF938C01EB0167E10E947E1180FDB6
:1027E0000BC0209759F0C8010E94821290E0959585
:1027F00087958770888302C080E001C081E0DF9107
:10280000CF911F910F910895CF93DF93EC010E9418
:10281000281240E767E0CE01DF91CF910C94C711F9
:10282000EF92FF920F931F93CF93DF93CDB7DEB755
:1028300028970FB6F894DEBF0FBECDBF7C01098389
:102840001A832B833C834D835E836F837887FC01DF
:102850002285AE014F5F5F4F6AE00E949611F7013B
:102860002285AE014F5F5F4F60E1C7010E94961164
:10287000F701438161E1C7010E94C71128960FB695
:10288000F894DEBF0FBECDBFDF91CF911F910F91A6
:10289000FF90EF900895AF92BF92DF92EF92FF9278
:1028A0000F931F93CF93DF93CDB7DEB728970FB663
:1028B000F894DEBF0FBECDBF5C01D62EE982FA824E
:1028C0000B831C832D833E834F83588761110AC07D
:1028D000FC01428550E0BE016F5F7F4F05960E946C
:1028E000551607C0F6E0F61708F435C081E0681306
:1028F00008C0ED2DF0E0E259FF4F6491F50122850B
:1029000006C0E62FF0E0E259FF4F649121E0AE01EE
:102910004F5F5F4FC5010E9496110D2D10E0F80129
:10292000E859FF4F6491F5014381C5010E94C71129
:1029300062E0C5010E947E11F801EC58FF4FE4915E
:1029400041E050E001C0440FEA95EAF7482B62E00D
:10295000C5010E94C71128960FB6F894DEBF0FBEBE
:10296000CDBFDF91CF911F910F91FF90EF90DF903E
:10297000BF90AF9008950F931F93CF938C01C62FF4
:1029800062E00E947E11EC2FF0E0EC58FF4FE491E2
:1029900021E030E001C0220FEA95EAF72095422FAE
:1029A000482362E0C801CF911F910F910C94C71189
:1029B000CF93DF93EC010E94171360E0CE010E94D9
:1029C0007E11482F416060E0CE010E94C71140E7B0
:1029D00067E0CE010E94C711299A8D81882349F0B2
:1029E0002A85AE014B5F5F4F6AE0CE010E949611CF
:1029F00004C060E0CE010E94BB146DE1CE010E94D4
:102A00007E1181FF05C0CE01DF91CF910C947F1222
:102A1000DF91CF9108950E94411180E50E947811C5
:102A200083E70E9478110C946211CF93DF93EC013D
:102A30006DE10E947E11482F44606DE1CE010E943D
:102A4000C7116CE1CE010E947E11482F4F636CE1EB
:102A5000CE010E94C71181E08C83DF91CF91089550
:102A60000F931F93CF93DF936730D0F4D42FC62FEB
:102A70008C0161E00E947E1141E050E001C0440FF2
:102A8000CA95EAF7DD2311F0482B02C04095482390
:102A900061E0C801DF91CF911F910F910C94C71194
:102AA000DF91CF911F910F9108950F931F93CF93B3
:102AB000DF938C01D62F66E00E947E11C82FC77D60
:102AC000D23031F4C0628BE990E0A0E0B0E00CC0FD
:102AD000D13029F085E590E0A0E0B0E005C0C86005
:102AE00081E490E0A0E0B0E0F80183879487A587B7
:102AF000B6874C2F66E0C8010E94C71166E0C80186
:102B00000E947E1191E08C1390E0892FDF91CF918C
:102B10001F910F9108951F93CF93DF93EC0187EAE4
:102B200091E60197F1F700C000004CE060E0CE01B3
:102B30000E94C7114FE564E0CE010E94C71162E018
:102B4000CE010E945515882311F081E08A8366E04A
:102B5000CE010E947E11182F60E0CE010E94551513
:102B6000CE010E940B1540E06DE1CE010E94C7111D
:102B700040E06CE1CE010E94C71140E767E0CE0162
:102B80000E94C7116CE4CE010E948E12CE010E94F9
:102B90007C12CE010E947F12CE010E94171360E0CA
:102BA000CE010E947E11482F4E7F60E0CE010E9430
:102BB000C711115081E01E3F08F080E0DF91CF91F6
:102BC0001F91089520E1629FB00111244F70462BA0
:102BD00064E00C94C711AA1BBB1B51E107C0AA1FDC
:102BE000BB1FA617B70710F0A61BB70B881F991FAE
:102BF0005A95A9F780959095BC01CD01089597FB52
:102C0000072E16F4009407D077FD09D00E94EB152B
:102C100007FC05D03EF4909581959F4F08957095DF
:102C200061957F4F0895A1E21A2EAA1BBB1BFD01DF
:102C30000DC0AA1FBB1FEE1FFF1FA217B307E4079B
:102C4000F50720F0A21BB30BE40BF50B661F771FF3
:102C5000881F991F1A9469F76095709580959095D3
:102C60009B01AC01BD01CF0108950E944616A59FAE
:102C7000900DB49F900DA49F800D911D1124089577
:102C8000EE0FFF1F0590F491E02D0994A29FB00173
:102C9000B39FC001A39F700D811D1124911DB29F90
:102CA000700D811D1124911D0895FB01DC0102C0EE
:102CB00001900D9241505040D8F708956817790758
:102CC00068F4FB01DC01E40FF51FA40FB51F02C07F
:102CD00002900E9241505040D8F708950C9455162A
:102CE000DC0101C06D9341505040E0F70895DC01D4
:102CF000CB01FC01F999FECF06C0F2BDE1BDF89A07
:102D0000319600B40D9241505040B8F70895DC015F
:102D1000CB0103C02D910E94921641505040D0F734
:102D20000895262FF999FECF1FBA92BD81BD20BD0F
:102D30000FB6F894FA9AF99A0FBE01960895F8948E
:022D4000FFCFC3
:102D4200000000009C01000000009500000000004F
:102D5200210700000000500BC33C33CE3EE3EC00E1
:00000001FF
